{
  "contractName": "VotingSystem",
  "abi": [
    {
      "inputs": [],
      "stateMutability": "nonpayable",
      "type": "constructor"
    },
    {
      "anonymous": false,
      "inputs": [
        {
          "indexed": false,
          "internalType": "uint256",
          "name": "electionId",
          "type": "uint256"
        },
        {
          "indexed": false,
          "internalType": "uint256",
          "name": "candidateId",
          "type": "uint256"
        }
      ],
      "name": "CandidateAdded",
      "type": "event"
    },
    {
      "anonymous": false,
      "inputs": [
        {
          "indexed": false,
          "internalType": "uint256",
          "name": "electionId",
          "type": "uint256"
        }
      ],
      "name": "ElectionClosed",
      "type": "event"
    },
    {
      "anonymous": false,
      "inputs": [
        {
          "indexed": false,
          "internalType": "uint256",
          "name": "electionId",
          "type": "uint256"
        }
      ],
      "name": "ElectionCreated",
      "type": "event"
    },
    {
      "anonymous": false,
      "inputs": [
        {
          "indexed": false,
          "internalType": "uint256",
          "name": "electionId",
          "type": "uint256"
        },
        {
          "indexed": false,
          "internalType": "uint256",
          "name": "candidateId",
          "type": "uint256"
        },
        {
          "indexed": false,
          "internalType": "address",
          "name": "voter",
          "type": "address"
        }
      ],
      "name": "VoteCasted",
      "type": "event"
    },
    {
      "inputs": [
        {
          "internalType": "address",
          "name": "",
          "type": "address"
        }
      ],
      "name": "admins",
      "outputs": [
        {
          "internalType": "bool",
          "name": "",
          "type": "bool"
        }
      ],
      "stateMutability": "view",
      "type": "function",
      "constant": true
    },
    {
      "inputs": [],
      "name": "electionCount",
      "outputs": [
        {
          "internalType": "uint256",
          "name": "",
          "type": "uint256"
        }
      ],
      "stateMutability": "view",
      "type": "function",
      "constant": true
    },
    {
      "inputs": [
        {
          "internalType": "uint256",
          "name": "",
          "type": "uint256"
        }
      ],
      "name": "elections",
      "outputs": [
        {
          "internalType": "uint256",
          "name": "id",
          "type": "uint256"
        },
        {
          "internalType": "string",
          "name": "name",
          "type": "string"
        },
        {
          "internalType": "bool",
          "name": "isActive",
          "type": "bool"
        },
        {
          "internalType": "uint256",
          "name": "candidateCount",
          "type": "uint256"
        },
        {
          "internalType": "uint256",
          "name": "startTime",
          "type": "uint256"
        },
        {
          "internalType": "uint256",
          "name": "endTime",
          "type": "uint256"
        },
        {
          "internalType": "bool",
          "name": "exists",
          "type": "bool"
        }
      ],
      "stateMutability": "view",
      "type": "function",
      "constant": true
    },
    {
      "inputs": [],
      "name": "owner",
      "outputs": [
        {
          "internalType": "address",
          "name": "",
          "type": "address"
        }
      ],
      "stateMutability": "view",
      "type": "function",
      "constant": true
    },
    {
      "inputs": [
        {
          "internalType": "address",
          "name": "_admin",
          "type": "address"
        }
      ],
      "name": "addAdmin",
      "outputs": [],
      "stateMutability": "nonpayable",
      "type": "function"
    },
    {
      "inputs": [
        {
          "internalType": "address",
          "name": "_admin",
          "type": "address"
        }
      ],
      "name": "removeAdmin",
      "outputs": [],
      "stateMutability": "nonpayable",
      "type": "function"
    },
    {
      "inputs": [
        {
          "internalType": "string",
          "name": "_name",
          "type": "string"
        },
        {
          "internalType": "uint256",
          "name": "_startTime",
          "type": "uint256"
        },
        {
          "internalType": "uint256",
          "name": "_endTime",
          "type": "uint256"
        }
      ],
      "name": "createElection",
      "outputs": [],
      "stateMutability": "nonpayable",
      "type": "function"
    },
    {
      "inputs": [
        {
          "internalType": "uint256",
          "name": "_electionId",
          "type": "uint256"
        },
        {
          "internalType": "string",
          "name": "_name",
          "type": "string"
        }
      ],
      "name": "addCandidate",
      "outputs": [],
      "stateMutability": "nonpayable",
      "type": "function"
    },
    {
      "inputs": [
        {
          "internalType": "uint256",
          "name": "_electionId",
          "type": "uint256"
        },
        {
          "internalType": "uint256",
          "name": "_candidateId",
          "type": "uint256"
        }
      ],
      "name": "vote",
      "outputs": [],
      "stateMutability": "nonpayable",
      "type": "function"
    },
    {
      "inputs": [
        {
          "internalType": "uint256",
          "name": "_electionId",
          "type": "uint256"
        },
        {
          "internalType": "uint256",
          "name": "_candidateId",
          "type": "uint256"
        }
      ],
      "name": "getCandidate",
      "outputs": [
        {
          "internalType": "uint256",
          "name": "",
          "type": "uint256"
        },
        {
          "internalType": "string",
          "name": "",
          "type": "string"
        },
        {
          "internalType": "uint256",
          "name": "",
          "type": "uint256"
        }
      ],
      "stateMutability": "view",
      "type": "function",
      "constant": true
    },
    {
      "inputs": [
        {
          "internalType": "uint256",
          "name": "_electionId",
          "type": "uint256"
        }
      ],
      "name": "closeElection",
      "outputs": [],
      "stateMutability": "nonpayable",
      "type": "function"
    },
    {
      "inputs": [
        {
          "internalType": "uint256",
          "name": "_electionId",
          "type": "uint256"
        },
        {
          "internalType": "address",
          "name": "_voter",
          "type": "address"
        }
      ],
      "name": "hasVoted",
      "outputs": [
        {
          "internalType": "bool",
          "name": "",
          "type": "bool"
        }
      ],
      "stateMutability": "view",
      "type": "function",
      "constant": true
    }
  ],
  "bytecode": "0x608060405234801561001057600080fd5b50600480546001600160a01b031916339081179091556000908152600360205260409020805460ff191660011790556115f18061004e6000396000f3fe608060405234801561001057600080fd5b50600436106100b45760003560e01c80635e6fef01116100715780635e6fef011461015257806370480275146101785780638da5cb5b1461018b578063997d2830146101a0578063b384abef146101b5578063f49a7a17146101c8576100b4565b806309e33d07146100b95780631750a3d0146100ce5780631785f53c146100e1578063429b62e5146100f4578063438596321461011d5780634bd4644814610130575b600080fd5b6100cc6100c7366004610e25565b6101db565b005b6100cc6100dc366004610e68565b61029d565b6100cc6100ef366004610db8565b610511565b610107610102366004610db8565b61058a565b6040516101149190610f2a565b60405180910390f35b61010761012b366004610e3d565b61059f565b61014361013e366004610ead565b610603565b6040516101149392919061149c565b610165610160366004610e25565b610761565b6040516101149796959493929190611457565b6100cc610186366004610db8565b61082b565b610193610879565b6040516101149190610f16565b6101a8610888565b604051610114919061144e565b6100cc6101c3366004610ead565b61088e565b6100cc6101d6366004610dd9565b610a9c565b600081815260016020526040902060090154819060ff166102175760405162461bcd60e51b815260040161020e90610fe8565b60405180910390fd5b60008281526001602052604090206002015460ff166102485760405162461bcd60e51b815260040161020e90611203565b60008281526001602052604090819020600201805460ff19169055517f393c4b8e62f1195313cf17dcf00793c668ddfc35881cd8015559c074f6d61e839061029190849061144e565b60405180910390a15050565b3360009081526003602052604090205460ff166102cc5760405162461bcd60e51b815260040161020e9061101f565b600082815260016020526040902060090154829060ff166102ff5760405162461bcd60e51b815260040161020e90610fe8565b600083815260016020526040902060020154839060ff166103325760405162461bcd60e51b815260040161020e906112c9565b600084815260016020526040902060040154849042106103645760405162461bcd60e51b815260040161020e9061123a565b6000845111801561037757506020845111155b6103935760405162461bcd60e51b815260040161020e9061108c565b60008581526001602052604090819020905160088201906103b5908790610efa565b9081526040519081900360200190205460ff16156103e55760405162461bcd60e51b815260040161020e9061115b565b60148160030154106104095760405162461bcd60e51b815260040161020e90611327565b60038101805490600061041b83611574565b909155505060408051608081018252600383015480825260208083018981526000848601819052600160608601819052938152600687018352949094208351815593518051939493610474938501929190910190610c82565b5060408281015160028301556060909201516003909101805460ff19169115159190911790555160019060088301906104ae908890610efa565b908152604051908190036020018120805492151560ff199093169290921790915560038201547fa072a1e90a5e808c6722a8b7c3457a422c2ee51d7b1a53dceb40bcb32586ac70916105019189916114c5565b60405180910390a1505050505050565b6004546001600160a01b0316331461053b5760405162461bcd60e51b815260040161020e906113a5565b6004546001600160a01b03828116911614156105695760405162461bcd60e51b815260040161020e90611417565b6001600160a01b03166000908152600360205260409020805460ff19169055565b60036020526000908152604090205460ff1681565b600082815260016020526040812060090154839060ff166105d25760405162461bcd60e51b815260040161020e90610fe8565b505060009182526001602090815260408084206001600160a01b039390931684526007909201905290205460ff1690565b6000828152600160205260408120600901546060908290859060ff1661063b5760405162461bcd60e51b815260040161020e90610fe8565b60008511801561065c57506000868152600160205260409020600301548511155b6106785760405162461bcd60e51b815260040161020e906112f9565b60008681526001602090815260408083208884526006019091529020600381015460ff166106b85760405162461bcd60e51b815260040161020e906110de565b80600001548160010182600201548180546106d290611539565b80601f01602080910402602001604051908101604052809291908181526020018280546106fe90611539565b801561074b5780601f106107205761010080835404028352916020019161074b565b820191906000526020600020905b81548152906001019060200180831161072e57829003601f168201915b5050505050915094509450945050509250925092565b60016020819052600091825260409091208054918101805461078290611539565b80601f01602080910402602001604051908101604052809291908181526020018280546107ae90611539565b80156107fb5780601f106107d0576101008083540402835291602001916107fb565b820191906000526020600020905b8154815290600101906020018083116107de57829003601f168201915b5050506002840154600385015460048601546005870154600990970154959660ff93841696929550909350911687565b6004546001600160a01b031633146108555760405162461bcd60e51b815260040161020e906113a5565b6001600160a01b03166000908152600360205260409020805460ff19166001179055565b6004546001600160a01b031681565b60005481565b600082815260016020526040902060090154829060ff166108c15760405162461bcd60e51b815260040161020e90610fe8565b600083815260016020526040902060020154839060ff166108f45760405162461bcd60e51b815260040161020e906112c9565b60008481526001602052604090206004015484904210156109275760405162461bcd60e51b815260040161020e90610f86565b6000818152600160205260409020600501544211156109585760405162461bcd60e51b815260040161020e90611062565b3360009081526003602052604090205460ff16156109885760405162461bcd60e51b815260040161020e906111a2565b6000858152600160209081526040808320338452600781019092529091205460ff16156109c75760405162461bcd60e51b815260040161020e906113e7565b6000851180156109db575080600301548511155b6109f75760405162461bcd60e51b815260040161020e90610fbd565b600085815260068201602052604090206003015460ff16610a2a5760405162461bcd60e51b815260040161020e906110de565b3360009081526007820160209081526040808320805460ff19166001179055878352600684019091528120600201805491610a6483611574565b91905055507ffe9b9fe32c3fe66775687ffbbb055de4489a6f99a6d31665430849156e8d7435868633604051610501939291906114d3565b3360009081526003602052604090205460ff16610acb5760405162461bcd60e51b815260040161020e9061101f565b60008351118015610ade57506020835111155b610afa5760405162461bcd60e51b815260040161020e90610f35565b600283604051610b0a9190610efa565b9081526040519081900360200190205460ff1615610b3a5760405162461bcd60e51b815260040161020e90611115565b428211610b595760405162461bcd60e51b815260040161020e906111ce565b818111610b785760405162461bcd60e51b815260040161020e90611288565b62278d00610b8683836114f2565b1115610ba45760405162461bcd60e51b815260040161020e9061135e565b600080549080610bb383611574565b90915550506000805480825260016020818152604090932091825585519192610be3929184019190870190610c82565b5060028181018054600160ff199182168117909255600984018054909116821790556004830185905560058301849055604051909190610c24908790610efa565b908152604051908190036020018120805492151560ff19909316929092179091556000547fe5ada6048ea7c2d62f0279b6b2e956a1d24f57eb887465b33a580e916257a6e791610c74919061144e565b60405180910390a150505050565b828054610c8e90611539565b90600052602060002090601f016020900481019282610cb05760008555610cf6565b82601f10610cc957805160ff1916838001178555610cf6565b82800160010185558215610cf6579182015b82811115610cf6578251825591602001919060010190610cdb565b50610d02929150610d06565b5090565b5b80821115610d025760008155600101610d07565b80356001600160a01b0381168114610d3257600080fd5b919050565b600082601f830112610d47578081fd5b813567ffffffffffffffff80821115610d6257610d626115a5565b604051601f8301601f191681016020018281118282101715610d8657610d866115a5565b604052828152848301602001861015610d9d578384fd5b82602086016020830137918201602001929092529392505050565b600060208284031215610dc9578081fd5b610dd282610d1b565b9392505050565b600080600060608486031215610ded578182fd5b833567ffffffffffffffff811115610e03578283fd5b610e0f86828701610d37565b9660208601359650604090950135949350505050565b600060208284031215610e36578081fd5b5035919050565b60008060408385031215610e4f578182fd5b82359150610e5f60208401610d1b565b90509250929050565b60008060408385031215610e7a578182fd5b82359150602083013567ffffffffffffffff811115610e97578182fd5b610ea385828601610d37565b9150509250929050565b60008060408385031215610ebf578182fd5b50508035926020909101359150565b60008151808452610ee6816020860160208601611509565b601f01601f19169290920160200192915050565b60008251610f0c818460208701611509565b9190910192915050565b6001600160a01b0391909116815260200190565b901515815260200190565b60208082526031908201527f456c656374696f6e206e616d65206d757374206265206265747765656e203120604082015270616e64203332206368617261637465727360781b606082015260800190565b6020808252601a908201527f566f74696e6720686173206e6f74207374617274656420796574000000000000604082015260600190565b602080825260119082015270496e76616c69642063616e64696461746560781b604082015260600190565b60208082526017908201527f456c656374696f6e20646f6573206e6f74206578697374000000000000000000604082015260600190565b60208082526023908201527f4f6e6c792061646d696e732063616e20706572666f726d20746869732061637460408201526234b7b760e91b606082015260800190565b60208082526010908201526f159bdd1a5b99c81a185cc8195b99195960821b604082015260600190565b60208082526032908201527f43616e646964617465206e616d65206d757374206265206265747765656e203160408201527120616e64203332206368617261637465727360701b606082015260800190565b60208082526018908201527f43616e64696461746520646f6573206e6f742065786973740000000000000000604082015260600190565b60208082526026908201527f456c656374696f6e20776974682074686973206e616d6520616c72656164792060408201526565786973747360d01b606082015260800190565b60208082526027908201527f43616e64696461746520776974682074686973206e616d6520616c72656164796040820152662065786973747360c81b606082015260800190565b60208082526012908201527141646d696e732063616e6e6f7420766f746560701b604082015260600190565b6020808252818101527f53746172742074696d65206d75737420626520696e2074686520667574757265604082015260600190565b6020808252601a908201527f456c656374696f6e20697320616c726561647920636c6f736564000000000000604082015260600190565b6020808252602e908201527f43616e6e6f74206164642063616e6469646174657320616674657220766f746960408201526d1b99c81a185cc81cdd185c9d195960921b606082015260800190565b60208082526021908201527f456e642074696d65206d7573742062652061667465722073746172742074696d6040820152606560f81b606082015260800190565b602080825260169082015275456c656374696f6e206973206e6f742061637469766560501b604082015260600190565b602080825260149082015273125b9d985b1a590818d85b991a59185d1948125160621b604082015260600190565b6020808252601f908201527f4d6178696d756d2063616e646964617465206c696d6974207265616368656400604082015260600190565b60208082526027908201527f456c656374696f6e206475726174696f6e2063616e6e6f7420657863656564206040820152663330206461797360c81b606082015260800190565b60208082526022908201527f4f6e6c79206f776e65722063616e20706572666f726d2074686973206163746960408201526137b760f11b606082015260800190565b602080825260169082015275165bdd481a185d9948185b1c9958591e481d9bdd195960521b604082015260600190565b6020808252601f908201527f43616e6e6f742072656d6f7665206f776e65722066726f6d2061646d696e7300604082015260600190565b90815260200190565b600088825260e0602083015261147060e0830189610ece565b9615156040830152506060810194909452608084019290925260a0830152151560c09091015292915050565b6000848252606060208301526114b56060830185610ece565b9050826040830152949350505050565b918252602082015260400190565b92835260208301919091526001600160a01b0316604082015260600190565b6000828210156115045761150461158f565b500390565b60005b8381101561152457818101518382015260200161150c565b83811115611533576000848401525b50505050565b60028104600182168061154d57607f821691505b6020821081141561156e57634e487b7160e01b600052602260045260246000fd5b50919050565b60006000198214156115885761158861158f565b5060010190565b634e487b7160e01b600052601160045260246000fd5b634e487b7160e01b600052604160045260246000fdfea2646970667358221220314411f552ed995bd89eadbf9a377c65c345abf01a00609235a010d115f0846464736f6c63430008000033",
  "immutableReferences": {},
  "source": "// SPDX-License-Identifier: MIT\r\npragma solidity ^0.8.0;\r\n\r\ncontract VotingSystem {\r\n    struct Candidate {\r\n        uint id;\r\n        string name;\r\n        uint voteCount;\r\n        bool exists;\r\n    }\r\n\r\n    struct Election {\r\n        uint id;\r\n        string name;\r\n        bool isActive;\r\n        uint candidateCount;\r\n        uint startTime;\r\n        uint endTime;\r\n        mapping(uint => Candidate) candidates;\r\n        mapping(address => bool) hasVoted;\r\n        mapping(string => bool) candidateNames; // To track duplicate candidate names\r\n        bool exists;\r\n    }\r\n\r\n    uint public electionCount;\r\n    mapping(uint => Election) public elections;\r\n    mapping(string => bool) private electionNames; // To track duplicate election names\r\n    mapping(address => bool) public admins;\r\n    address public owner;\r\n\r\n    // Events to track actions\r\n    event ElectionCreated(uint electionId);\r\n    event CandidateAdded(uint electionId, uint candidateId);\r\n    event VoteCasted(uint electionId, uint candidateId, address voter);\r\n    event ElectionClosed(uint electionId);\r\n\r\n    constructor() {\r\n        owner = msg.sender;\r\n        admins[msg.sender] = true;\r\n    }\r\n\r\n    modifier onlyAdmin() {\r\n        require(admins[msg.sender], \"Only admins can perform this action\");\r\n        _;\r\n    }\r\n\r\n    modifier onlyOwner() {\r\n        require(msg.sender == owner, \"Only owner can perform this action\");\r\n        _;\r\n    }\r\n\r\n    modifier electionExists(uint _electionId) {\r\n        require(elections[_electionId].exists, \"Election does not exist\");\r\n        _;\r\n    }\r\n\r\n    modifier electionActive(uint _electionId) {\r\n        require(elections[_electionId].isActive, \"Election is not active\");\r\n        _;\r\n    }\r\n\r\n    modifier votingOpen(uint _electionId) {\r\n        require(block.timestamp >= elections[_electionId].startTime, \"Voting has not started yet\");\r\n        require(block.timestamp <= elections[_electionId].endTime, \"Voting has ended\");\r\n        _;\r\n    }\r\n\r\n    modifier canAddCandidates(uint _electionId) {\r\n        require(block.timestamp < elections[_electionId].startTime, \"Cannot add candidates after voting has started\");\r\n        _;\r\n    }\r\n\r\n    function addAdmin(address _admin) public onlyOwner {\r\n        admins[_admin] = true;\r\n    }\r\n\r\n    function removeAdmin(address _admin) public onlyOwner {\r\n        require(_admin != owner, \"Cannot remove owner from admins\");\r\n        admins[_admin] = false;\r\n    }\r\n\r\n    function createElection(string memory _name, uint _startTime, uint _endTime) public onlyAdmin {\r\n        require(bytes(_name).length > 0 && bytes(_name).length <= 32, \"Election name must be between 1 and 32 characters\");\r\n        require(!electionNames[_name], \"Election with this name already exists\");\r\n        require(_startTime > block.timestamp, \"Start time must be in the future\");\r\n        require(_endTime > _startTime, \"End time must be after start time\");\r\n        require(_endTime - _startTime <= 30 days, \"Election duration cannot exceed 30 days\");\r\n        \r\n        electionCount++;\r\n        Election storage election = elections[electionCount];\r\n        election.id = electionCount;\r\n        election.name = _name;\r\n        election.isActive = true;\r\n        election.exists = true;\r\n        election.startTime = _startTime;\r\n        election.endTime = _endTime;\r\n        electionNames[_name] = true;\r\n        \r\n        emit ElectionCreated(electionCount);\r\n    }\r\n\r\n    function addCandidate(uint _electionId, string memory _name) public \r\n        onlyAdmin \r\n        electionExists(_electionId) \r\n        electionActive(_electionId)\r\n        canAddCandidates(_electionId)\r\n    {\r\n        require(bytes(_name).length > 0 && bytes(_name).length <= 32, \"Candidate name must be between 1 and 32 characters\");\r\n        Election storage election = elections[_electionId];\r\n        require(!election.candidateNames[_name], \"Candidate with this name already exists\");\r\n        require(election.candidateCount < 20, \"Maximum candidate limit reached\");\r\n        \r\n        election.candidateCount++;\r\n        election.candidates[election.candidateCount] = Candidate(\r\n            election.candidateCount,\r\n            _name,\r\n            0,\r\n            true\r\n        );\r\n        election.candidateNames[_name] = true;\r\n        \r\n        emit CandidateAdded(_electionId, election.candidateCount);\r\n    }\r\n\r\n    function vote(uint _electionId, uint _candidateId) public \r\n        electionExists(_electionId)\r\n        electionActive(_electionId)\r\n        votingOpen(_electionId)\r\n    {\r\n        require(!admins[msg.sender], \"Admins cannot vote\");\r\n        Election storage election = elections[_electionId];\r\n        require(!election.hasVoted[msg.sender], \"You have already voted\");\r\n        require(_candidateId > 0 && _candidateId <= election.candidateCount, \"Invalid candidate\");\r\n        require(election.candidates[_candidateId].exists, \"Candidate does not exist\");\r\n\r\n        election.hasVoted[msg.sender] = true;\r\n        election.candidates[_candidateId].voteCount++;\r\n\r\n        emit VoteCasted(_electionId, _candidateId, msg.sender);\r\n    }\r\n\r\n    function getCandidate(uint _electionId, uint _candidateId) public view \r\n        electionExists(_electionId)\r\n        returns (uint, string memory, uint) \r\n    {\r\n        require(_candidateId > 0 && _candidateId <= elections[_electionId].candidateCount, \"Invalid candidate ID\");\r\n        Candidate storage candidate = elections[_electionId].candidates[_candidateId];\r\n        require(candidate.exists, \"Candidate does not exist\");\r\n        return (candidate.id, candidate.name, candidate.voteCount);\r\n    }\r\n\r\n    function closeElection(uint _electionId) public electionExists(_electionId) {\r\n        require(elections[_electionId].isActive, \"Election is already closed\");\r\n        elections[_electionId].isActive = false;\r\n        emit ElectionClosed(_electionId);\r\n    }\r\n\r\n    function hasVoted(uint _electionId, address _voter) public view \r\n        electionExists(_electionId) \r\n        returns (bool) \r\n    {\r\n        return elections[_electionId].hasVoted[_voter];\r\n    }\r\n}\r\n",
  "sourcePath": "C:\\Users\\EliteBook\\Desktop\\Decentralized-voting-system-\\contracts\\VotingSystem.sol",
  "compiler": {
    "name": "solc",
    "version": "0.8.0+commit.c7dfd78e.Emscripten.clang"
  },
  "schemaVersion": "3.4.16",
  "updatedAt": "2025-02-11T21:50:36.350Z",
  "networkType": "ethereum",
  "devdoc": {
    "kind": "dev",
    "methods": {},
    "version": 1
  },
  "userdoc": {
    "kind": "user",
    "methods": {},
    "version": 1
  }
}