{
  "contractName": "VotingSystem",
  "abi": [
    {
      "anonymous": false,
      "inputs": [
        {
          "indexed": false,
          "internalType": "uint256",
          "name": "electionId",
          "type": "uint256"
        },
        {
          "indexed": false,
          "internalType": "uint256",
          "name": "candidateId",
          "type": "uint256"
        }
      ],
      "name": "CandidateAdded",
      "type": "event"
    },
    {
      "anonymous": false,
      "inputs": [
        {
          "indexed": false,
          "internalType": "uint256",
          "name": "electionId",
          "type": "uint256"
        }
      ],
      "name": "ElectionClosed",
      "type": "event"
    },
    {
      "anonymous": false,
      "inputs": [
        {
          "indexed": false,
          "internalType": "uint256",
          "name": "electionId",
          "type": "uint256"
        }
      ],
      "name": "ElectionCreated",
      "type": "event"
    },
    {
      "anonymous": false,
      "inputs": [
        {
          "indexed": false,
          "internalType": "uint256",
          "name": "electionId",
          "type": "uint256"
        },
        {
          "indexed": false,
          "internalType": "uint256",
          "name": "candidateId",
          "type": "uint256"
        },
        {
          "indexed": false,
          "internalType": "address",
          "name": "voter",
          "type": "address"
        }
      ],
      "name": "VoteCasted",
      "type": "event"
    },
    {
      "inputs": [],
      "name": "electionCount",
      "outputs": [
        {
          "internalType": "uint256",
          "name": "",
          "type": "uint256"
        }
      ],
      "stateMutability": "view",
      "type": "function",
      "constant": true
    },
    {
      "inputs": [
        {
          "internalType": "uint256",
          "name": "",
          "type": "uint256"
        }
      ],
      "name": "elections",
      "outputs": [
        {
          "internalType": "uint256",
          "name": "id",
          "type": "uint256"
        },
        {
          "internalType": "string",
          "name": "name",
          "type": "string"
        },
        {
          "internalType": "bool",
          "name": "isActive",
          "type": "bool"
        },
        {
          "internalType": "uint256",
          "name": "candidateCount",
          "type": "uint256"
        },
        {
          "internalType": "bool",
          "name": "exists",
          "type": "bool"
        }
      ],
      "stateMutability": "view",
      "type": "function",
      "constant": true
    },
    {
      "inputs": [
        {
          "internalType": "string",
          "name": "_name",
          "type": "string"
        }
      ],
      "name": "createElection",
      "outputs": [],
      "stateMutability": "nonpayable",
      "type": "function"
    },
    {
      "inputs": [
        {
          "internalType": "uint256",
          "name": "_electionId",
          "type": "uint256"
        },
        {
          "internalType": "string",
          "name": "_name",
          "type": "string"
        }
      ],
      "name": "addCandidate",
      "outputs": [],
      "stateMutability": "nonpayable",
      "type": "function"
    },
    {
      "inputs": [
        {
          "internalType": "uint256",
          "name": "_electionId",
          "type": "uint256"
        },
        {
          "internalType": "uint256",
          "name": "_candidateId",
          "type": "uint256"
        }
      ],
      "name": "vote",
      "outputs": [],
      "stateMutability": "nonpayable",
      "type": "function"
    },
    {
      "inputs": [
        {
          "internalType": "uint256",
          "name": "_electionId",
          "type": "uint256"
        },
        {
          "internalType": "uint256",
          "name": "_candidateId",
          "type": "uint256"
        }
      ],
      "name": "getCandidate",
      "outputs": [
        {
          "internalType": "uint256",
          "name": "",
          "type": "uint256"
        },
        {
          "internalType": "string",
          "name": "",
          "type": "string"
        },
        {
          "internalType": "uint256",
          "name": "",
          "type": "uint256"
        }
      ],
      "stateMutability": "view",
      "type": "function",
      "constant": true
    },
    {
      "inputs": [
        {
          "internalType": "uint256",
          "name": "_electionId",
          "type": "uint256"
        }
      ],
      "name": "closeElection",
      "outputs": [],
      "stateMutability": "nonpayable",
      "type": "function"
    }
  ],
  "bytecode": "0x608060405234801561001057600080fd5b50610e7d806100206000396000f3fe608060405234801561001057600080fd5b506004361061007d5760003560e01c80634bd464481161005b5780634bd46448146100bd5780635e6fef01146100e8578063997d28301461010c578063b384abef146101215761007d565b806309e33d071461008257806315cf4a5f146100975780631750a3d0146100aa575b600080fd5b6100956100903660046109e9565b610134565b005b6100956100a53660046109ae565b6101f6565b6100956100b8366004610a01565b610319565b6100d06100cb366004610a46565b6104f9565b6040516100df93929190610d49565b60405180910390f35b6100fb6100f63660046109e9565b610657565b6040516100df959493929190610d11565b610114610714565b6040516100df9190610d08565b61009561012f366004610a46565b61071a565b600081815260016020526040902060070154819060ff166101705760405162461bcd60e51b815260040161016790610ada565b60405180910390fd5b60008281526001602052604090206002015460ff166101a15760405162461bcd60e51b815260040161016790610c0c565b60008281526001602052604090819020600201805460ff19169055517f393c4b8e62f1195313cf17dcf00793c668ddfc35881cd8015559c074f6d61e83906101ea908490610d08565b60405180910390a15050565b60008151116102175760405162461bcd60e51b815260040161016790610b11565b6002816040516102279190610a93565b9081526040519081900360200190205460ff16156102575760405162461bcd60e51b815260040161016790610b7f565b60008054908061026683610e0a565b90915550506000805480825260016020818152604090932091825583519192610296929184019190850190610894565b5060028181018054600160ff199182168117909255600784018054909116821790556040519091906102c9908590610a93565b908152604051908190036020018120805492151560ff19909316929092179091556000547fe5ada6048ea7c2d62f0279b6b2e956a1d24f57eb887465b33a580e916257a6e7916101ea9190610d08565b600082815260016020526040902060070154829060ff1661034c5760405162461bcd60e51b815260040161016790610ada565b600083815260016020526040902060020154839060ff1661037f5760405162461bcd60e51b815260040161016790610c7a565b60008351116103a05760405162461bcd60e51b815260040161016790610c43565b60008481526001602052604090819020905160068201906103c2908690610a93565b9081526040519081900360200190205460ff16156103f25760405162461bcd60e51b815260040161016790610bc5565b60038101805490600061040483610e0a565b90915550506040805160808101825260038301548082526020808301888152600084860181905260016060860181905293815260048701835294909420835181559351805193949361045d938501929190910190610894565b5060408281015160028301556060909201516003909101805460ff1916911515919091179055516001906006830190610497908790610a93565b908152604051908190036020018120805492151560ff199093169290921790915560038201547fa072a1e90a5e808c6722a8b7c3457a422c2ee51d7b1a53dceb40bcb32586ac70916104ea918891610d72565b60405180910390a15050505050565b6000828152600160205260408120600701546060908290859060ff166105315760405162461bcd60e51b815260040161016790610ada565b60008511801561055257506000868152600160205260409020600301548511155b61056e5760405162461bcd60e51b815260040161016790610caa565b60008681526001602090815260408083208884526004019091529020600381015460ff166105ae5760405162461bcd60e51b815260040161016790610b48565b80600001548160010182600201548180546105c890610dcf565b80601f01602080910402602001604051908101604052809291908181526020018280546105f490610dcf565b80156106415780601f1061061657610100808354040283529160200191610641565b820191906000526020600020905b81548152906001019060200180831161062457829003601f168201915b5050505050915094509450945050509250925092565b60016020819052600091825260409091208054918101805461067890610dcf565b80601f01602080910402602001604051908101604052809291908181526020018280546106a490610dcf565b80156106f15780601f106106c6576101008083540402835291602001916106f1565b820191906000526020600020905b8154815290600101906020018083116106d457829003601f168201915b5050505060028301546003840154600790940154929360ff918216939092501685565b60005481565b600082815260016020526040902060070154829060ff1661074d5760405162461bcd60e51b815260040161016790610ada565b600083815260016020526040902060020154839060ff166107805760405162461bcd60e51b815260040161016790610c7a565b6000848152600160209081526040808320338452600581019092529091205460ff16156107bf5760405162461bcd60e51b815260040161016790610cd8565b6000841180156107d3575080600301548411155b6107ef5760405162461bcd60e51b815260040161016790610aaf565b600084815260048201602052604090206003015460ff166108225760405162461bcd60e51b815260040161016790610b48565b3360009081526005820160209081526040808320805460ff1916600117905586835260048401909152812060020180549161085c83610e0a565b91905055507ffe9b9fe32c3fe66775687ffbbb055de4489a6f99a6d31665430849156e8d74358585336040516104ea93929190610d80565b8280546108a090610dcf565b90600052602060002090601f0160209004810192826108c25760008555610908565b82601f106108db57805160ff1916838001178555610908565b82800160010185558215610908579182015b828111156109085782518255916020019190600101906108ed565b50610914929150610918565b5090565b5b808211156109145760008155600101610919565b600082601f83011261093d578081fd5b813567ffffffffffffffff8082111561095857610958610e31565b604051601f8301601f19168101602001828111828210171561097c5761097c610e31565b604052828152848301602001861015610993578384fd5b82602086016020830137918201602001929092529392505050565b6000602082840312156109bf578081fd5b813567ffffffffffffffff8111156109d5578182fd5b6109e18482850161092d565b949350505050565b6000602082840312156109fa578081fd5b5035919050565b60008060408385031215610a13578081fd5b82359150602083013567ffffffffffffffff811115610a30578182fd5b610a3c8582860161092d565b9150509250929050565b60008060408385031215610a58578182fd5b50508035926020909101359150565b60008151808452610a7f816020860160208601610d9f565b601f01601f19169290920160200192915050565b60008251610aa5818460208701610d9f565b9190910192915050565b602080825260119082015270496e76616c69642063616e64696461746560781b604082015260600190565b60208082526017908201527f456c656374696f6e20646f6573206e6f74206578697374000000000000000000604082015260600190565b6020808252601d908201527f456c656374696f6e206e616d652063616e6e6f7420626520656d707479000000604082015260600190565b60208082526018908201527f43616e64696461746520646f6573206e6f742065786973740000000000000000604082015260600190565b60208082526026908201527f456c656374696f6e20776974682074686973206e616d6520616c72656164792060408201526565786973747360d01b606082015260800190565b60208082526027908201527f43616e64696461746520776974682074686973206e616d6520616c72656164796040820152662065786973747360c81b606082015260800190565b6020808252601a908201527f456c656374696f6e20697320616c726561647920636c6f736564000000000000604082015260600190565b6020808252601e908201527f43616e646964617465206e616d652063616e6e6f7420626520656d7074790000604082015260600190565b602080825260169082015275456c656374696f6e206973206e6f742061637469766560501b604082015260600190565b602080825260149082015273125b9d985b1a590818d85b991a59185d1948125160621b604082015260600190565b602080825260169082015275165bdd481a185d9948185b1c9958591e481d9bdd195960521b604082015260600190565b90815260200190565b600086825260a06020830152610d2a60a0830187610a67565b9415156040830152506060810192909252151560809091015292915050565b600084825260606020830152610d626060830185610a67565b9050826040830152949350505050565b918252602082015260400190565b92835260208301919091526001600160a01b0316604082015260600190565b60005b83811015610dba578181015183820152602001610da2565b83811115610dc9576000848401525b50505050565b600281046001821680610de357607f821691505b60208210811415610e0457634e487b7160e01b600052602260045260246000fd5b50919050565b6000600019821415610e2a57634e487b7160e01b81526011600452602481fd5b5060010190565b634e487b7160e01b600052604160045260246000fdfea2646970667358221220115fe775c2c656f718f6e32fc91bbb0a6616f2eddb902790bf2eb5183b01b27c64736f6c63430008000033",
  "immutableReferences": {},
  "source": "// SPDX-License-Identifier: MIT\r\npragma solidity ^0.8.0;\r\n\r\ncontract VotingSystem {\r\n    struct Candidate {\r\n        uint id;\r\n        string name;\r\n        uint voteCount;\r\n        bool exists;\r\n    }\r\n\r\n    struct Election {\r\n        uint id;\r\n        string name;\r\n        bool isActive;\r\n        uint candidateCount;\r\n        mapping(uint => Candidate) candidates;\r\n        mapping(address => bool) hasVoted;\r\n        mapping(string => bool) candidateNames; // To track duplicate candidate names\r\n        bool exists;\r\n    }\r\n\r\n    uint public electionCount;\r\n    mapping(uint => Election) public elections;\r\n    mapping(string => bool) private electionNames; // To track duplicate election names\r\n\r\n    // Events to track actions\r\n    event ElectionCreated(uint electionId);\r\n    event CandidateAdded(uint electionId, uint candidateId);\r\n    event VoteCasted(uint electionId, uint candidateId, address voter);\r\n    event ElectionClosed(uint electionId);\r\n\r\n    modifier electionExists(uint _electionId) {\r\n        require(elections[_electionId].exists, \"Election does not exist\");\r\n        _;\r\n    }\r\n\r\n    modifier electionActive(uint _electionId) {\r\n        require(elections[_electionId].isActive, \"Election is not active\");\r\n        _;\r\n    }\r\n\r\n    function createElection(string memory _name) public {\r\n        require(bytes(_name).length > 0, \"Election name cannot be empty\");\r\n        require(!electionNames[_name], \"Election with this name already exists\");\r\n        \r\n        electionCount++;\r\n        Election storage election = elections[electionCount];\r\n        election.id = electionCount;\r\n        election.name = _name;\r\n        election.isActive = true;\r\n        election.exists = true;\r\n        electionNames[_name] = true;\r\n        \r\n        emit ElectionCreated(electionCount);\r\n    }\r\n\r\n    function addCandidate(uint _electionId, string memory _name) public \r\n        electionExists(_electionId) \r\n        electionActive(_electionId) \r\n    {\r\n        require(bytes(_name).length > 0, \"Candidate name cannot be empty\");\r\n        Election storage election = elections[_electionId];\r\n        require(!election.candidateNames[_name], \"Candidate with this name already exists\");\r\n        \r\n        election.candidateCount++;\r\n        election.candidates[election.candidateCount] = Candidate(\r\n            election.candidateCount,\r\n            _name,\r\n            0,\r\n            true\r\n        );\r\n        election.candidateNames[_name] = true;\r\n        \r\n        emit CandidateAdded(_electionId, election.candidateCount);\r\n    }\r\n\r\n    function vote(uint _electionId, uint _candidateId) public \r\n        electionExists(_electionId)\r\n        electionActive(_electionId) \r\n    {\r\n        Election storage election = elections[_electionId];\r\n        require(!election.hasVoted[msg.sender], \"You have already voted\");\r\n        require(_candidateId > 0 && _candidateId <= election.candidateCount, \"Invalid candidate\");\r\n        require(election.candidates[_candidateId].exists, \"Candidate does not exist\");\r\n\r\n        election.hasVoted[msg.sender] = true;\r\n        election.candidates[_candidateId].voteCount++;\r\n\r\n        emit VoteCasted(_electionId, _candidateId, msg.sender);\r\n    }\r\n\r\n    function getCandidate(uint _electionId, uint _candidateId) public view \r\n        electionExists(_electionId)\r\n        returns (uint, string memory, uint) \r\n    {\r\n        require(_candidateId > 0 && _candidateId <= elections[_electionId].candidateCount, \"Invalid candidate ID\");\r\n        Candidate storage candidate = elections[_electionId].candidates[_candidateId];\r\n        require(candidate.exists, \"Candidate does not exist\");\r\n        return (candidate.id, candidate.name, candidate.voteCount);\r\n    }\r\n\r\n    function closeElection(uint _electionId) public electionExists(_electionId) {\r\n        require(elections[_electionId].isActive, \"Election is already closed\");\r\n        elections[_electionId].isActive = false;\r\n        emit ElectionClosed(_electionId);\r\n    }\r\n}\r\n",
  "sourcePath": "C:\\Users\\EliteBook\\Decentralized-voting-system-\\contracts\\VotingSystem.sol",
  "compiler": {
    "name": "solc",
    "version": "0.8.0+commit.c7dfd78e.Emscripten.clang"
  },
  "schemaVersion": "3.4.16",
  "updatedAt": "2025-02-11T12:46:26.466Z",
  "networkType": "ethereum",
  "devdoc": {
    "kind": "dev",
    "methods": {},
    "version": 1
  },
  "userdoc": {
    "kind": "user",
    "methods": {},
    "version": 1
  }
}